:0600000000308A005C28BC
:10000800FE0003088301DA000A08DB008A01830185
:100018008C1E13288C121A08A6001A08A6000B1D9D
:100028004F280B11A01D48281308AA009301CF30B0
:1000380097052A0EF039303997042A08D900031099
:10004800D90C0310590C9500BB0A0319BC0A0319F3
:10005800BD0A0319BE0A42083E02031D3D28410895
:100068003D02031D3D2840083C02031D3D283F0872
:100078003B02031C48280714A01107176430950099
:10008800CF30970585140514A30F4F28A20A22081C
:1000980003390319A0168B188B100B180B100C18AA
:1000A8000C105B088A005A088300FE0E7E0E0900B9
:1000B800203084005A3065208A1180280406800187
:1000C800840A0406031D62286400003483120313A3
:1000D800DC00DD1B78285D1B80285D088A005C0831
:1000E800DC0A0319DD0A820083135D1883175C0894
:1000F800DC0A840000080800FF3083120313AD00F7
:10010800AE008A11A0238A1164248A110530BA002E
:10011800B901A701A801851405140714A901A90AA2
:100128008715B90103178D0183168C130C148312DC
:100138000C080313BA0015303A02031CA528023034
:10014800BA00851E8519CC28A011071764308A11BA
:100158005724071020148E30CF00D0018A1128238D
:10016800BB01BC01BD01BE016030BF00EA30C00068
:10017800C101C201A01564308A11572464308A1164
:10018800572464308A11572464308A1157248A11FD
:10019800201230082F04871CFA28031DF528883000
:1001A800AF001330B000201A201900290510A01143
:1001B800071764308A115724A70A0710201409303A
:1001C800CF00D0018A1128238A11BB01BC01BD01CF
:1001D800BE01B430BF00AA30C000C101C201A015E1
:1001E80000298830AF001330B00000290319002916
:1001F800AF080319B003AF0332083104071D2D29D6
:10020800031D28298830B1001330B200201A2019A4
:1002180033298510A011071764308A115724A80ABA
:10022800071020140930CF00D0018A1128238A1121
:10023800BB01BC01BD01BE01B430BF00AA30C00083
:10024800C101C201A01533298830B1001330B200B2
:10025800332903193329B1080319B203B103A01EC6
:10026800CD28A01208302102A10A031C6629A10189
:10027800201A201965293A08390403196529B9088B
:100288000319BA03B9033C303902031C4D293B302A
:10029800B9003A083904031D6529201207102014F3
:1002A8005C30CF00D0018A1128238A11BB01BC0120
:1002B800BD01BE01D830BF005930C000C101C20124
:1002C800A0152014201CD5292010CC01CB01CA016F
:1002D800C901C801C701C601C501C401C301270876
:1002E800AC000A302C02031C7D29C30AF630AC0787
:1002F80075290A304302031C83290930C3000130E1
:100308002C02031C8A29C40AAC0383290A3044023C
:10031800031C90290930C4000F30C5002808AC0020
:100328000A302C02031C9C29C60AF630AC07942913
:100338000A304602031CA2290930C60001302C02EB
:10034800031CA929C70AAC03A2290A304702031CC7
:10035800AF290930C7000E30C8003A08AC00013098
:100368002C02031CBA29C90AAC03B3290230A0061F
:10037800A01CC0290F30C1290E30CA003908AC00B2
:100388000A302C02031CCE29CB0AF630AC07C4294C
:10039800CC0AAC0301302C020318CC2943308A1153
:1003A8000A248A11DA238A11AB00AB080319CD2875
:1003B8002B0811390319272AA011071764308A114D
:1003C80057248A112012B90103178D0183168C1343
:1003D8000C1483120C080313BA00BA0A0A303A0242
:1003E800031CF8290230BA00831603178C18F82961
:1003F80083128D0103133A0803178C0083168C139C
:1004080003108B1B03148B130C1555308D00AA3069
:100418008D008C140C1103188B178C18112A831259
:10042800031307102014FA30CF00D0018A112823B3
:100438008A11BB01BC01BD01BE01FA30BF00C00179
:10044800C101C201A015AB1E562AA01107176430BE
:100458008A1157248A1120162011B90103178D011A
:1004680083168C130C1483120C080313BA0015306E
:100478003A02031C412A0230BA00A801A70107105A
:100488002014CF01CF0AD0018A1128238A11BB0179
:10049800BC01BD01BE01A030BF000F30C000C101CA
:1004A800C201A015AB1CCD28201E5C2A0430A00672
:1004B800071764308A11572407102014FA30CF0028
:1004C800D0018A1128238A11BB01BC01BD01BE01DC
:1004D800FA30BF00C001C101C201A015CD288301B7
:1004E800D701D8017C2A83120313D70A0319D80A23
:1004F8005808803AFF005608803A7F02031D862A72
:100508005508570203180800772A8301D200D3013F
:10051800D4013230D500D601732205128316051294
:1005280032308312D500D6017322D301D401D21FF1
:100538009F2A0515A02A0511831605110310831299
:10054800D20D3230D500D601732205168316051256
:1005580032308312D500D601732205128316051294
:1005680032308312D500D6017322D30A0319D40A74
:100578005408803AFF0080307F0208300319530284
:10058800031C9B2A05118316051132308312D500EE
:10059800D601732205168316051232308312D50050
:1005A800D601732205128316051232308312D50044
:1005B800D601732A32308301D500D6017322051182
:1005C8008316051132308312D500D6017322051621
:1005D8008316051232308312D500D6017322051511
:1005E8008316051132308312D500D601732A3230B2
:1005F8008301D500D6017322051583160511323003
:100608008312D500D60173220516831605123230DF
:100618008312D500D60173220511831605113230D5
:100628008312D500D60173220512831605123230C3
:100638008312D500D601732A8301D2001308D10092
:100648005208930013080800830107130310CF0D05
:10065800D00D0310CF0DD00DE830202350082023F3
:100668004F0820230030202300302023003020238F
:1006780000302023003020230030202B8301071373
:100688000310CF0DD00D0310CF0DD00DE83020236F
:10069800500820234F082023003020230030202337
:1006A8000030202300302023003020230030202376
:1006B8001308CF0007170800830107130310CF0D95
:1006C800D00D0310CF0DD00D8530202350082023E6
:1006D8004F08202300302023CF01D001812B54085C
:1006E8005007DD0053084F070318DD0A8A116A20F6
:1006F8008A112023CF0A0319D00A52085002031D79
:10070800872B51084F02031C732BC8308A115724BA
:100718000717C8308A11572C830107130310CF0D10
:10072800D00D0310CF0DD00D853020235008202385
:100738004F0820230030202B7130831603138F00BD
:100748008F308100E8308500BF3086000630870092
:100758009F0183129F0103179E019F018B0183163E
:10076800031396018312031796018B1695018316BE
:10077800031395018C018E018B1783128501860165
:1007880087018C01900183160C10043083129200AB
:10079800031799019A0199019A010C3003139700E4
:1007A8003F30831692008312950108008301CF0120
:1007B800851AE92B0A304D020318F22BCD0A4D0891
:1007C8000A3A031DF22B4F16F22BCD080319F12B11
:1007D8000A304D020318F12B4F14CD018519FF2B58
:1007E8000A304E020318082CCE0A4E080A3A031D96
:1007F800082CCF16082CCE080319072C0A304E02F5
:100808000318072CCF14CE014F0808008301CF002E
:100818008A11FB2270308A118922CE308A118922EE
:10082800E0308A118922F8308A118922F0308A1141
:10083800892200308A118922D00150084F0784008C
:1008480083130008D1000F30D10504308A00510805
:100858003824D1008A1189228A11D00A0A3050021C
:10086800031C212C8A11DE2A8207EE344434DA3440
:10087800D6347434B634BE34C434FE34F63400345A
:100888000034003400340034103419308316031354
:10089800990024309800B030831298000B17831603
:1008A8008C16831208008301CF000430D000533027
:1008B800D100D10B5D2CD00B5B2CCF0B592C080031
:1008C80040308316031394002030831294000800EC
:02400E00843CF0
:10420000060000002B00430049005000430053000B
:00000001FF
